{
  "contractName": "MedVerify",
  "abi": [
    {
      "anonymous": false,
      "inputs": [
        {
          "indexed": false,
          "internalType": "uint256",
          "name": "batchId",
          "type": "uint256"
        },
        {
          "indexed": false,
          "internalType": "bool",
          "name": "isVerified",
          "type": "bool"
        }
      ],
      "name": "BatchVerified",
      "type": "event"
    },
    {
      "anonymous": false,
      "inputs": [
        {
          "indexed": false,
          "internalType": "uint256",
          "name": "batchId",
          "type": "uint256"
        },
        {
          "indexed": false,
          "internalType": "string",
          "name": "name",
          "type": "string"
        },
        {
          "indexed": false,
          "internalType": "address",
          "name": "distributor",
          "type": "address"
        },
        {
          "indexed": false,
          "internalType": "address",
          "name": "retailer",
          "type": "address"
        }
      ],
      "name": "NewBatchCreated",
      "type": "event"
    },
    {
      "inputs": [
        {
          "internalType": "uint256",
          "name": "",
          "type": "uint256"
        }
      ],
      "name": "medicines",
      "outputs": [
        {
          "internalType": "string",
          "name": "name",
          "type": "string"
        },
        {
          "internalType": "uint256",
          "name": "batchId",
          "type": "uint256"
        },
        {
          "internalType": "address",
          "name": "distributor",
          "type": "address"
        },
        {
          "internalType": "address",
          "name": "retailer",
          "type": "address"
        },
        {
          "internalType": "bool",
          "name": "isVerified",
          "type": "bool"
        }
      ],
      "stateMutability": "view",
      "type": "function",
      "constant": true
    },
    {
      "inputs": [
        {
          "internalType": "uint256",
          "name": "_batchId",
          "type": "uint256"
        },
        {
          "internalType": "string",
          "name": "_name",
          "type": "string"
        },
        {
          "internalType": "address",
          "name": "_distributor",
          "type": "address"
        },
        {
          "internalType": "address",
          "name": "_retailer",
          "type": "address"
        }
      ],
      "name": "createBatch",
      "outputs": [],
      "stateMutability": "nonpayable",
      "type": "function"
    },
    {
      "inputs": [
        {
          "internalType": "uint256",
          "name": "_batchId",
          "type": "uint256"
        }
      ],
      "name": "verifyBatch",
      "outputs": [],
      "stateMutability": "nonpayable",
      "type": "function"
    },
    {
      "inputs": [
        {
          "internalType": "uint256",
          "name": "_batchId",
          "type": "uint256"
        }
      ],
      "name": "getBatchDetails",
      "outputs": [
        {
          "internalType": "string",
          "name": "",
          "type": "string"
        },
        {
          "internalType": "uint256",
          "name": "",
          "type": "uint256"
        },
        {
          "internalType": "address",
          "name": "",
          "type": "address"
        },
        {
          "internalType": "address",
          "name": "",
          "type": "address"
        },
        {
          "internalType": "bool",
          "name": "",
          "type": "bool"
        }
      ],
      "stateMutability": "view",
      "type": "function",
      "constant": true
    }
  ],
  "bytecode": "0x608060405234801561001057600080fd5b50610836806100206000396000f3fe608060405234801561001057600080fd5b506004361061004c5760003560e01c806382766597146100515780639d47dcc014610066578063c85e766d14610093578063dfe3a3ae146100a6575b600080fd5b61006461005f366004610578565b6100b9565b005b610079610074366004610560565b6101ef565b60405161008a95949392919061068f565b60405180910390f35b6100796100a1366004610560565b61031a565b6100646100b4366004610560565b6103e4565b600084815260208190526040902060010154156100f15760405162461bcd60e51b81526004016100e8906106d2565b60405180910390fd5b6040805160a08101825284815260208082018790526001600160a01b03808616838501528416606083015260006080830181905287815280825292909220815180519293919261014492849201906104ab565b50602082015160018201556040808301516002830180546001600160a01b039283166001600160a01b0319918216179091556060850151600390940180546080909601511515600160a01b0260ff60a01b199590931695909116949094179290921691909117909155517ff49c0c9a0943217077ce828466a3cb9cc524ddd4deb6410c67960cb4ee9d4cb1906101e1908690869086908690610775565b60405180910390a150505050565b606060008060008060008060008881526020019081526020016000206040518060a0016040529081600082018054610226906107af565b80601f0160208091040260200160405190810160405280929190818152602001828054610252906107af565b801561029f5780601f106102745761010080835404028352916020019161029f565b820191906000526020600020905b81548152906001019060200180831161028257829003601f168201915b5050509183525050600182015460208083019190915260028301546001600160a01b03908116604080850191909152600390940154908116606080850191909152600160a01b90910460ff16151560809384015284519185015193850151908501519490920151909b929a5090985091965090945092505050565b600060208190529081526040902080548190610335906107af565b80601f0160208091040260200160405190810160405280929190818152602001828054610361906107af565b80156103ae5780601f10610383576101008083540402835291602001916103ae565b820191906000526020600020905b81548152906001019060200180831161039157829003601f168201915b5050505060018301546002840154600390940154929390926001600160a01b03918216925090811690600160a01b900460ff1685565b6000818152602081905260409020600101546104125760405162461bcd60e51b81526004016100e890610737565b6000818152602081905260409020600201546001600160a01b0316331461044b5760405162461bcd60e51b81526004016100e890610700565b60008181526020819052604090819020600301805460ff60a01b1916600160a01b179055517f8fa19318c4280299918d1220c80ba5db06b26b8947b75384ce2d74ba043c0265906104a0908390600190610765565b60405180910390a150565b8280546104b7906107af565b90600052602060002090601f0160209004810192826104d9576000855561051f565b82601f106104f257805160ff191683800117855561051f565b8280016001018555821561051f579182015b8281111561051f578251825591602001919060010190610504565b5061052b92915061052f565b5090565b5b8082111561052b5760008155600101610530565b80356001600160a01b038116811461055b57600080fd5b919050565b600060208284031215610571578081fd5b5035919050565b6000806000806080858703121561058d578283fd5b8435935060208086013567ffffffffffffffff808211156105ac578586fd5b818801915088601f8301126105bf578586fd5b8135818111156105d1576105d16107ea565b604051601f8201601f19168101850183811182821017156105f4576105f46107ea565b60405281815283820185018b101561060a578788fd5b81858501868301379081019093019590955250925061062b60408601610544565b915061063960608601610544565b905092959194509250565b60008151808452815b818110156106695760208185018101518683018201520161064d565b8181111561067a5782602083870101525b50601f01601f19169290920160200192915050565b600060a082526106a260a0830188610644565b6020830196909652506001600160a01b039384166040820152919092166060820152901515608090910152919050565b602080825260149082015273426174636820616c72656164792065786973747360601b604082015260600190565b6020808252601b908201527f4f6e6c79206469737472696275746f722063616e207665726966790000000000604082015260600190565b60208082526014908201527310985d18da08191bd95cc81b9bdd08195e1a5cdd60621b604082015260600190565b9182521515602082015260400190565b60008582526080602083015261078e6080830186610644565b6001600160a01b039485166040840152929093166060909101529392505050565b6002810460018216806107c357607f821691505b602082108114156107e457634e487b7160e01b600052602260045260246000fd5b50919050565b634e487b7160e01b600052604160045260246000fdfea2646970667358221220f20019d003ec34b129b7238d1c2da25bd308f22aa507115c087c35bfa69da6d264736f6c63430008000033",
  "immutableReferences": {},
  "source": "// SPDX-License-Identifier: MIT\r\npragma solidity ^0.8.0;\r\n\r\ncontract MedVerify {\r\n    struct Medicine {\r\n        string name;\r\n        uint256 batchId;\r\n        address distributor;\r\n        address retailer;\r\n        bool isVerified;\r\n    }\r\n\r\n    mapping(uint256 => Medicine) public medicines;\r\n\r\n    // Event to log new medicine batches\r\n    event NewBatchCreated(\r\n        uint256 batchId,\r\n        string name,\r\n        address distributor,\r\n        address retailer\r\n    );\r\n\r\n    // Event to log verification status\r\n    event BatchVerified(\r\n        uint256 batchId,\r\n        bool isVerified\r\n    );\r\n\r\n    // Create a new medicine batch\r\n    function createBatch(\r\n        uint256 _batchId,\r\n        string memory _name,\r\n        address _distributor,\r\n        address _retailer\r\n    ) public {\r\n        require(medicines[_batchId].batchId == 0, \"Batch already exists\");\r\n        \r\n        medicines[_batchId] = Medicine({\r\n            name: _name,\r\n            batchId: _batchId,\r\n            distributor: _distributor,\r\n            retailer: _retailer,\r\n            isVerified: false\r\n        });\r\n\r\n        emit NewBatchCreated(_batchId, _name, _distributor, _retailer);\r\n    }\r\n\r\n    // Verify a medicine batch by the distributor\r\n    function verifyBatch(uint256 _batchId) public {\r\n        require(medicines[_batchId].batchId != 0, \"Batch does not exist\");\r\n        require(msg.sender == medicines[_batchId].distributor, \"Only distributor can verify\");\r\n\r\n        medicines[_batchId].isVerified = true;\r\n\r\n        emit BatchVerified(_batchId, true);\r\n    }\r\n\r\n    // View the details of a medicine batch\r\n    function getBatchDetails(uint256 _batchId)\r\n        public\r\n        view\r\n        returns (string memory, uint256, address, address, bool)\r\n    {\r\n        Medicine memory medicine = medicines[_batchId];\r\n        return (\r\n            medicine.name,\r\n            medicine.batchId,\r\n            medicine.distributor,\r\n            medicine.retailer,\r\n            medicine.isVerified\r\n        );\r\n    }\r\n}\r\n",
  "sourcePath": "D:\\medverify\\contracts\\Medverify.sol",
  "compiler": {
    "name": "solc",
    "version": "0.8.0+commit.c7dfd78e.Emscripten.clang"
  },
  "schemaVersion": "3.4.16",
  "updatedAt": "2024-11-04T16:28:25.768Z",
  "networkType": "ethereum",
  "devdoc": {
    "kind": "dev",
    "methods": {},
    "version": 1
  },
  "userdoc": {
    "kind": "user",
    "methods": {},
    "version": 1
  }
}